:020000040800F2
:100000000050002029030008710300087103000854
:10001000710300087103000871030008000000006C
:100020000000000000000000000000007103000854
:10003000710300080000000071030008710300084C
:1000400071030008710300087103000871030008C0
:1000500071030008710300087103000871030008B0
:1000600071030008710300087103000871030008A0
:100070007103000871030008710300087103000890
:100080007103000871030008710300087103000880
:100090007103000871030008710300087103000870
:1000A0007103000871030008710300087103000860
:1000B0007103000871030008710300087103000850
:1000C0007103000871030008710300087103000840
:1000D0007103000871030008710300087103000830
:1000E000710300087103000871030008000000009C
:1000F0000000000000000000000000000000000000
:0C01000000000000000000005FF808F1A3
:10010C00A3F5803A704700BF174B002B08BF134B69
:10011C009D46FFF7F5FF00218B460F461348144A06
:10012C00121A00F009FB0E4B002B00D098470D4B18
:10013C00002B00D098470020002104000D000D4832
:10014C00002802D00C4800F081FC00F0C3FB20001A
:10015C00290000F01EF800F007F900BF00000800AD
:10016C00000000000000000000000000300600202D
:10017C0078090020590A0008CD15000882B00190BA
:10018C0000E000BF019B5A1E0192002BF9D102B076
:10019C00704708B5104A936943F0040393610F4B01
:1001AC00D3F8002822F47002C3F80028D3F80028F2
:1001BC0042F40012C3F80028084D2023C5F810386B
:1001CC00074C2046FFF7DAFF4FF40013C5F8103840
:1001DC002046FFF7D3FFEFE700100240000001407C
:1001EC0040420F007047204B5B6803F00C03042B5C
:1001FC0011D0082B13D0002B31D11C4B1C4A1A6088
:10020C00194B5B68C3F303131A4AD15C174A136882
:10021C00CB4013607047154B154A1A60F0E7124A31
:10022C0053685268C3F38343023312F4803F05D101
:10023C00114A02FB03F30D4A1360E1E70A4A5268C4
:10024C0012F4003F05D00C4A02FB03F3074A13607B
:10025C00D6E7074A02FB03F3044A1360D0E7034BCB
:10026C00034A1A60CCE700BF0010024000000020D7
:10027C0000127A001C17000800093D0090170008B6
:10028C0000000020300600203006002078090020F5
:10029C000348044B834202D0034B03B11847704709
:1002AC003006002030060020000000000548064BF8
:1002BC001B1AD90F01EBA301491002D0034B03B158
:1002CC001847704730060020300600200000000060
:1002DC0010B5064C237843B9FFF7DAFF044B13B182
:1002EC000448AFF300800123237010BD30060020BA
:1002FC00000000000017000808B5054B1BB10549AC
:10030C000548AFF30080BDE80840FFF7CFBF00BF42
:10031C00000000003406002000170008FFF762FF01
:10032C000B480C490C4A002302E0D458C450043347
:10033C00C4188C42F9D3094A094C002301E013601C
:10034C000432A242FBD300F0C5FAFFF722FF70473C
:10035C000000002030060020901700083006002016
:10036C0078090020FEE7000008B50021044600F0E3
:10037C00F7FA034B1B6803B19847204601F0B8F914
:10038C0084070020024A0349034800F069B900BF02
:10039C0008000020B5120008180000200C4B416822
:1003AC0010B59942044601D000F07EFFA168094BBC
:1003BC00994202D0204600F077FFE168064B994243
:1003CC0004D02046BDE8104000F06EBF10BD00BF49
:1003DC004C060020B40600201C07002008B54B6E0C
:1003EC00DA0702D48B899B0501D5002008BD886DE6
:1003FC0000F0A2FA002008BD08B54B6EDA0702D453
:10040C008B899B0501D5002008BD886D00F09CFAF6
:10041C00002008BD2DE9F84300250423304C314A57
:10042C003149DFF8C890DFF8C880324F324E116086
:10043C0004F15C0029460822C4E90335C4E90055DF
:10044C00C4E90555A560656600F076F904F158001D
:10045C00C4E90749C4E90987E66200F065FA274B4D
:10046C002946082204F1C4006367C4E91A55C4E99B
:10047C001E552567C4F8CC50C4F8805000F05CF9C8
:10048C0004F1680304F1C000C4F88430C4E9229874
:10049C00C4E9247600F048FA194B294604F5967005
:1004AC000822C4F8DC30C4E93455C4E93855C4F822
:1004BC00D850C4F83451C4F8E85000F03DF904F1B8
:1004CC00D003C4E93D87C4F8F09004F59470C4F8E7
:1004DC00FC60C4F8EC30BDE8F84300F025BA00BF6E
:1004EC004C0600208407002091030008B106000888
:1004FC00D9060008190700083D070008090001008B
:10050C0012000200F8B507462A4800F015FA2A4BEB
:10051C001B68002B43D0294E7368013B26D4B4686A
:10052C0003E05A1C04F1680420D0B4F90C50013BD0
:10053C00002DF6D1224B04F15800E360656600F003
:10054C00F3F91C4800F000FA08222946C4E90155C9
:10055C00C4E904552560A56104F15C0000F0ECF8D9
:10056C00C4E90C55C4E911552046F8BD35680DB1E8
:10057C002E46D1E74FF4D671384600F0C7FB04463F
:10058C0080B104230560294625460C304FF4D07207
:10059C00A060636000F0D0F834602E46BCE7FFF733
:1005AC0039FFB8E70348346000F0CEF90C233B6008
:1005BC00DAE700BFA807002084070020080000200D
:1005CC000100FFFF10B504460A4800F0B5F9636B53
:1005DC0023B9094B094A1B68626323B1BDE810407B
:1005EC00044800F0B1B9FFF715FFBDE81040014811
:1005FC0000F0AAB9A807002084070020A90300086E
:10060C00014800F099B900BFA8070020014800F08C
:10061C009BB900BFA807002008B5054800F08CF96D
:10062C00BDE808400020034A034900F019B800BF98
:10063C00A807002008000020E903000808B50020E6
:10064C00044A054900F00CF8BDE80840034800F0E6
:10065C007BB900BF0800002005040008A807002093
:10066C002DE9F84380460F464FF000091646756891
:10067C00013D11D4B468A389012B08D9B4F90E300B
:10068C00013304D021464046B84749EA0009013DF0
:10069C006B1C04F16804EED13668002EE7D1484695
:1006AC00BDE8F88310B50C46B1F90E1000F0E6F871
:1006BC00002803DB236D0344236510BDA38923F4B9
:1006CC008053A38110BD00BF002070472DE9F0417D
:1006DC001F46B1F90C301646DA050C4605460BD40C
:1006EC0023F48051A1813B4632462846B4F90E10C2
:1006FC00BDE8F04100F0D8B802230022B1F90E1089
:10070C0000F0A6F8B4F90C30EAE700BF10B50C46BF
:10071C00B1F90E1000F09CF8B4F90C30421C0EBF6D
:10072C0023F4805343F480532065A38110BD00BF94
:10073C00B1F90E1000F044B830B584078646034674
:10074C0006D0A2B303F8011B980702F1FF32F8D1CF
:10075C00032A26D95FFA81FC0CEB0C2C0F2A0CEB2C
:10076C000C402AD922F00F0C9C44C3E90000C3E9C9
:10077C00020010336345F8D112F00C0F02F00F0594
:10078C0017D01A464FEA950C0CF1FF3403EB8C0C86
:10079C0042F8040B6245FBD1043305F0030203EB72
:1007AC00840322B11A4403F8011B9A42FBD1704610
:1007BC0030BD2A46002AF5D1F9E71546E1E700BF1E
:1007CC0038B50023064C05460846236000F062FF4E
:1007DC00431C00D038BD2368002BFBD02B6038BDE8
:1007EC0088070020194B1B6883422ED0416C70B5D2
:1007FC00054681B100268C593CB121462468284617
:10080C0000F080F9002CF8D1696C0436802EF2D1FE
:10081C00284600F077F9A96B11B1284600F072F95F
:10082C002C6C34B121462468284600F06BF9002C5E
:10083C00F8D1E96C11B1284600F064F96B6B1BB16F
:10084C002846BDE87040184770BD70471400002062
:10085C008C461146002238B5074C0546226060468E
:10086C001A4600F01FFF431C00D038BD2368002B34
:10087C00FBD02B6038BD00BF880700208C4611468A
:10088C00002238B5074C0546226060461A4600F037
:10089C0011FF431C00D038BD2368002BFBD02B600C
:1008AC0038BD00BF880700208C461146002238B5A1
:1008BC00074C0546226060461A4600F011FF431CA7
:1008CC0000D038BD2368002BFBD02B6038BD00BF97
:1008DC008807002070B50F4B0F4E9E4209D01D4665
:1008EC000024F61AB61055F8043B01349847A6427A
:1008FC00F9D800F001FF094E094B9E4209D01D4664
:10090C000024F61AB61055F8043B01349847A64259
:10091C00F9D870BD84170008841700088C170008DC
:10092C0084170008704700BF704700BF704700BFB6
:10093C00704700BF704700BF704700BF0120704771
:10094C0001207047704700BF704700BF024B13B1C6
:10095C00024800F07BB8704700000000CD1500087D
:10096C002DE9F04F374F83B0DFF8DC9001903868F9
:10097C000E46FFF7E1FFD9F800B0BBF1000F32D003
:10098C00DBF804305C1E2ED40BF1040505EB83055B
:10099C007EBBDBF80430D5F80080013BA34216BFC8
:1009AC000023CBF804402B60B8F1000F16D0386848
:1009BC00DBF804A0FFF7C8FF0123DBF88821A34074
:1009CC0013422CD1C0473868FFF7B6FFDBF8042080
:1009DC00D9F80030524531D15B452FD1013C631C15
:1009EC00A5F10405D4D1386803B0BDE8F04FFFF78A
:1009FC00ABBFD5F80031621E9E42CAD0002CF2D09B
:100A0C00D5F8FC30023CB34212D0621CA5F10805AB
:100A1C00EFD1386803B0BDE8F04FFFF795BFDBF8B6
:100A2C008C21D5F88010134205D10198C047CAE734
:100A3C001446043DADE70846C047C4E7002BD2D0AE
:100A4C009B469DE718020020AC07002000230146BE
:100A5C001A46184600F0D6BDF8B5064608200C46D6
:100A6C0000F0C2FD0746304600F012FC224A9368A3
:100A7C005D6825F00305A5F111031C1B3C44B4FB78
:100A8C00F7F4013C07FB04F4A74208DC00213046D4
:100A9C0000F084FD184A93682B44984204D03046E9
:100AAC0000F0FCFB0020F8BD3046614200F076FD02
:100ABC000130114A0DD0114993682D1B45F00105E9
:100ACC005D600B6830461B1B0B6000F0E7FB0120E0
:100ADC00F8BD0021304600F061FD074A9268831A88
:100AEC000F2BDCDD43F001035360054B03491B68FE
:100AFC00C01A0860D3E700BF28020020B00700200E
:100B0C001C020020002960D02DE9F0410C4607465C
:100B1C0000F0BEFB54F804EC7949A4F1080C2EF05B
:100B2C0001030CEB03028D685068954220F0030022
:100B3C0000F08780506015186D6805F001060EF006
:100B4C0001058DBB54F8084C01F1080EACEB040CFC
:100B5C002344DCF80840744566D0DCF80C50E560A2
:100B6C00AC60002E00F08A8043F00100CCF8040049
:100B7C001360B3F5007F32D25809DA0801238340A1
:100B8C004868013203434B6051F8320001EBC20359
:100B9C00083BCCE9020341F832C0C0F80CC038461F
:100BAC00BDE8F04100F07ABB86B9034401F1080EB0
:100BBC00906843F00104704579D0D268C2609060AF
:100BCC00CCF804404CF80330D3E770474EF00102E8
:100BDC00B3F5007F44F8042C4CF80330CCD3B3F5B8
:100BEC00206F4FEA53224BD29A0902F1390002F1DD
:100BFC003804C20088188A580838904203D15FE044
:100C0C009268904204D0516821F003019942F7D8C0
:100C1C00D068CCE90220C0F808C03846BDE8F041E5
:100C2C00C2F80CC000F03ABBAEBB1844D2E90223A8
:100C3C00D3609A6040F00103CCF804304CF800000B
:100C4C00ADE718440EF0010343B954F8083CACEB83
:100C5C00030C1844DCE90223D3609A6040F00103D2
:100C6C00CCF80430274BC1F808C01B68834296D8D7
:100C7C00254B38461968FFF7EFFE90E7034497E7DA
:100C8C00142A0ED9542A22D81A0B02F16F0002F141
:100C9C006E04C200AEE743F00101CCF804101360FF
:100CAC007DE702F15C0002F15B04C200A2E7C1E93E
:100CBC0004CCCCE902EECCF804404CF803306EE7DF
:100CCC000123A410A3404C6823434B60A1E7B2F569
:100CDC00AA7F06D8DA0B02F1780002F17704C20081
:100CEC0088E740F25450824206D89A0C02F17D00FB
:100CFC0002F17C04C2007DE74FF47E727E2479E71A
:100D0C002802002020020020E00700202DE9F04FEF
:100D1C0001F10B02162A814685B024D8102900F265
:100D2C00A88000F0B5FA022518211022B24C2144FB
:100D3C004E68A1F10800864200F058817268F16893
:100D4C00B46822F003023244E1608C60516848467A
:100D5C0041F00101516006F1080400F09FFA2046B1
:100D6C0005B0BDE8F08F32F0070200F182809142AD
:100D7C007FD8019200F08CFA019AB2F5FC7FC0F09A
:100D8C00B081530A7DD0042B00F26881930903F1E2
:100D9C00390503F138064FEAC50E974CA644DEF828
:100DAC000470AEF1080EBE4507D10DE00028FB68BB
:100DBC0080F20B819E4507D01F46796821F0030114
:100DCC00881A0F28F2DD354623698C498B4200F0D6
:100DDC00E9805E6826F00306B11A0F2900F38581BD
:100DEC0086480029C4E9040080F26E81B6F5007FC4
:100DFC00676880F00F81012101EBD60C7609B140B8
:100E0C0054F83C000F4304EBCC0108399860D960CE
:100E1C00676044F83C30C3600126AB109E40BE4274
:100E2C0034D83E4206D125F0030576003E4205F14A
:100E3C000405FAD0284604EBC50804EBC507F9688D
:100E4C000FE0D1F804C00B462CF0030EAEEB020CF5
:100E5C00BCF10F0FC96800F30E81BCF1000F80F2DA
:100E6C0023818F42EDD10130830707F10807E6D1CA
:100E7C0075E10C23C9F800300024204605B0BDE80C
:100E8C00F08F4FF4007E40253F2686E7A7687968EF
:100E9C0021F0030393429A4603D3991A0F2900F3C6
:100EAC008380574908200968564E10311144CDE90A
:100EBC00011200F099FB0246019955424B1E134456
:100ECC00834630681D40B0F1FF3F18BF29464846A5
:100EDC00019100F063FB411C0546DDE9011200F0B5
:100EEC00218107EB0A0C844500F21A81464B0BF169
:100EFC00FF3E18680844186000F07B81D6F800802B
:100F0C00CDE90223B8F1FF3F1BBFA5EB0C0C6044ED
:100F1C003560186015F00700019000F03C81C0F1BD
:100F2C00080005446B1803EA0E015844401A00EA05
:100F3C000E0631464846984600F030FB421CDDE96F
:100F4C00022300F08581401B304440F001011868F9
:100F5C00A7423044A5601860696017D0BAF10F0F32
:100F6C0040F251810526AAF10C0121F0070C796899
:100F7C00BCF10F0F01F0010141EA0C01796007EBA4
:100F8C000C01C1E9016600F2568169681F4B1E68AD
:100F9C00864238BF18601E4B1E68864200D218600D
:100FAC002F46C1E0676837E7BD1841F0010142F0F8
:100FBC0001027A604846A560696007F1080400F0F8
:100FCC006DF9204605B0BDE8F08FBA683944D3609E
:100FDC009A604A68484642F001024A6007F10804E8
:100FEC0000F05CF9204605B0BDE8F08FCE68B14248
:100FFC007FF4A4AE0235E7E6280200203002002080
:10100C00E00700201C020020B0070020DC070020B5
:10101C00D8070020B6F5206F4FEA56207AD3142853
:10102C0000F2CD8000F15C01C9005B3004EB010CD7
:10103C006158ACF1080C8C4503D1A5E089688C454E
:10104C0004D0486820F00300B042F7D8D1F80CC0A7
:10105C00C3E9021CCCF80830CB60DDE6142B70D948
:10106C00542B00F2B480130B03F16F0503F16E06E1
:10107C004FEAC50E91E69D1842F001025A609E6837
:10108C00814AF1608E60C4E90455C5E902224CF036
:10109C0001026A60484643F80EC0019300F0FEF866
:1010AC00019B03F10804E8E61C469E44DEF804307C
:1010BC00484643F00103CEF8043054F8083FD96099
:1010CC008B6000F0EBF8D8E61E447268484642F09C
:1010DC0001027260019300F0E1F8019B03F1080436
:1010EC00CBE6D50802F1080120E69D1842F001027A
:1010FC005A60654AC4E90455C5E9022241F001026F
:10110C006A6048469951019300F0C8F8019B03F1BD
:10111C000804B2E6B00900F13901C900383085E79E
:10112C00A7425FD0A768796821F003009042A0EB3A
:10113C00020102D30F293FF737AF484600F0AEF853
:10114C009AE603F15C0503F15B064FEAC50E24E653
:10115C00414651F808398B42884640F0928015F090
:10116C00030F05F1FF35F3D1636823EA06036360CF
:10117C0076009E423FF68AAE16B987E676000430BA
:10118C001E42FBD0054655E60126801006FA00F0FB
:10119C00074367605CE705EB010808EA0E01ABEB5F
:1011AC00010606EA0E063146484600F0F7F9431CE4
:1011BC00019B04BF40461E46DDE90223C3E65428CA
:1011CC0024D8300B00F16F01C9006E302EE7B3F557
:1011DC00AA7F24D8D30B03F1780503F177064FEAE5
:1011EC00C50EDAE5294B0BF1FF3E18680844186070
:1011FC0084E615EA0E0F7FF481AEA568514441F0E8
:10120C0001016960C2E601236B6096E7B0F5AA7F25
:10121C0024D8F00B00F17801C900773006E740F2D2
:10122C0054518B4224D8930C03F17D0503F17C06B9
:10123C004FEAC50EB1E5484607F10801CDE9012397
:10124C00FFF760FCA568029B69681868019A9DE627
:10125C0001990026083908EB010074E640F254515C
:10126C0088420AD8B00C00F17D01C9007C30DDE663
:10127C004FF47E7E7F257E268FE54FF47E717E2097
:10128C00D4E6636874E700BF30020020B00700208A
:10129C000148FFF751BB00BF9C0700200148FFF736
:1012AC0053BB00BF9C07002070B5002941D00646F7
:1012BC000C4610B1436B002B3ED0FFF7A1F9636EC7
:1012CC00B4F90C20DD0730D4900538D521463046D2
:1012DC0000F054F8E36A054633B13046E1699847AB
:1012EC000028B8BF4FF0FF35A3891A0639D4216BFB
:1012FC0041B104F14003994202D03046FFF702FCA1
:10130C0000232363616C21B13046FFF7FBFB002304
:10131C0063640022636EA281DB071ED5A06DFFF70C
:10132C0007FBFFF773F9284670BD002ACED1FFF7F3
:10133C006DF90025284670BDFFF744F9BDE7A06D97
:10134C00FFF7FAFAB4F90C30002BBFD1636ED90752
:10135C00EDD4A06DFFF7F8FAE9E7A06DFFF7F4FA0A
:10136C00DCE730462169FFF7CDFBC0E7024B0146B5
:10137C001868FFF799BF00BF14000020B1F90C20CA
:10138C00F8B515070C46074649D4496842F4006382
:10139C000029A3815FDDA66A002E3ED0002112F445
:1013AC0080523D68396061D101233846E169B0470C
:1013BC000246501C67D0B4F90C30A66A590705D503
:1013CC006368D21A236B0BB1E36BD21A0023384635
:1013DC00E169B047421CB4F90C3049D139681D2978
:1013EC003ED82D4ACA40D6073AD5002262602269FF
:1013FC00D904226023F40062A28102D53B68002B41
:10140C003FD0216B3D6041B104F14003994202D0C1
:10141C003846FFF777FB002323630020F8BD0E69E5
:10142C00002EFAD0920718BF00230D6808BF4B6935
:10143C000E60AD1B8B600BE02B4632463846E169E3
:10144C00D4F824C0E0470028A5EB0005064406DDCF
:10145C00002DF1DCE1E7E16B00299CDCDDE7A389E1
:10146C0043F040034FF0FF30A381F8BD226DA5E798
:10147C00002262602269226023F40062DB04A281F4
:10148C00BFD52065BDE73B68002B94D01D2B01D048
:10149C00162BE4D13D60C0E70100402000B50346A7
:1014AC0083B008B1426B52B3B1F90C0098B14A6EDB
:1014BC00D20701D4820512D518460091FFF75EFFC2
:1014CC00009903464A6ED00702D48A8992050ED53C
:1014DC00184603B000BD0346184603B000BD886D26
:1014EC0001930091FFF728FADDE90013E4E7886D1A
:1014FC000093FFF729FA009B184603B000BDCDE915
:10150C000001FFF75FF8DDE90031CDE7002838D0A6
:10151C0000B51E4B01461B6883B00BB15A6BD2B1A0
:10152C00B1F90C0098B14A6ED20701D482051AD5D4
:10153C0018460091FFF722FF009903464A6ED00728
:10154C0002D48A89920516D5184603B000BD03460D
:10155C00184603B000BD019018460093FFF732F80F
:10156C00DDE90031DCE7886D01930091FFF7E4F9C8
:10157C00DDE90013DCE7886D0093FFF7E5F9009BCC
:10158C00E2E7034A03490448FFF76AB81400002055
:10159C0008000020A91400081800002038B500230A
:1015AC00064C05460846236000F08CF8431C00D01E
:1015BC0038BD2368002BFBD02B6038BD880700207A
:1015CC0038B5074D074C2C1BA41005D0013C55F821
:1015DC00043D9847002CF9D1BDE8384000F092B892
:1015EC00901700088C170008082802D14FF480507F
:1015FC00704708B500F048F8162203464FF0FF304C
:10160C001A6008BDF0B51D4C83B00546206816461F
:10161C001F460191FFF790F9194A0199136823B3FA
:10162C005A6820681F2A23DC4DB9541C02325C60B6
:10163C0043F82210FFF788F9002003B0F0BD012415
:10164C0003EB820ECEF88860D3F888C194404CEA44
:10165C00040C022DC3F888C1CEF80871E5D1D3F87B
:10166C008C512543C3F88C51DFE7064B1360D7E749
:10167C00FFF76AF94FF0FF30DFE700BF18020020D8
:10168C00AC070020E4070020014B1868704700BF2E
:10169C00140000205822024B4FF0FF301A607047A4
:1016AC00880700205822024B4FF0FF301A60704719
:1016BC00880700205822024B4FF0FF301A60704709
:1016CC0088070020044A05491368002B08BF0B4605
:1016DC0018441060184670477409002078090020DF
:1016EC005822024B4FF0FF301A60704788070020D9
:1016FC00FEE700BF00000000F8B500BFF8BC08BC56
:10170C009E467047F8B500BFF8BC08BC9E467047B3
:10171C000000000000000000010203040607080995
:10172C0000000000010203043E410C41114127411D
:10173C0036410341064115410F410E4126411341EB
:10174C002941024119410A410B4100003E410C4123
:10175C001141274136410341064115410F410E41CC
:10176C00264113412941024119410A410B41000014
:08177C0090E9FF7F010000006D
:081784005909000805030008E3
:04178C00DD02000872
:101790000024F4000000000000000000030000002E
:1017A0004C06002018000020000000004C0600201D
:1017B000B40600201C07002000000000000000000C
:1017C0000000000000000000000000000000000019
:1017D0000000000000000000000000000000000009
:1017E00000000000000000000000000000000000F9
:1017F00000000000000000000000000000000000E9
:1018000000000000000000000000000000000000D8
:1018100000000000000000000000000000000000C8
:1018200000000000000000000000000000000000B8
:1018300000000000000000000000000000000000A8
:1018400001000000000000000E33CDAB34126DE645
:10185000ECDE05000B0000000000000000000000AE
:101860000000000000000000000000000000000078
:101870000000000000000000000000000000000068
:101880000000000000000000000000000000000058
:101890000000000000000000000000000000000048
:1018A0000000000000000000000000000000000038
:1018B0000000000000000000000000000000000028
:1018C0000000000000000000000000000000000018
:1018D0000000000000000000000000000000000008
:1018E00000000000000000000000000000000000F8
:1018F00000000000000000000000000000000000E8
:1019000000000000000000000000000000000000D7
:1019100000000000000000000000000000000000C7
:1019200000000000000000000000000000000000B7
:1019300000000000000000000000000000000000A7
:101940000000000000000000000000000000000097
:101950000000000000000000000000000000000087
:101960000000000000000000000000000000000077
:101970000000000000000000000000000000000067
:101980000000000000000000000000000000000057
:101990000000000000000000000000000000000047
:1019A0000000000000000000A4070020FFFFFFFF70
:1019B0000000020000000000000000000000000025
:1019C00028020020280200203002002030020020DF
:1019D000380200203802002040020020400200208F
:1019E000480200204802002050020020500200203F
:1019F00058020020580200206002002060020020EF
:101A0000680200206802002070020020700200209E
:101A1000780200207802002080020020800200204E
:101A200088020020880200209002002090020020FE
:101A30009802002098020020A0020020A0020020AE
:101A4000A8020020A8020020B0020020B00200205E
:101A5000B8020020B8020020C0020020C00200200E
:101A6000C8020020C8020020D0020020D0020020BE
:101A7000D8020020D8020020E0020020E00200206E
:101A8000E8020020E8020020F0020020F00200201E
:101A9000F8020020F80200200003002000030020CC
:101AA000080300200803002010030020100300207A
:101AB000180300201803002020030020200300202A
:101AC00028030020280300203003002030030020DA
:101AD000380300203803002040030020400300208A
:101AE000480300204803002050030020500300203A
:101AF00058030020580300206003002060030020EA
:101B00006803002068030020700300207003002099
:101B10007803002078030020800300208003002049
:101B200088030020880300209003002090030020F9
:101B30009803002098030020A0030020A0030020A9
:101B4000A8030020A8030020B0030020B003002059
:101B5000B8030020B8030020C0030020C003002009
:101B6000C8030020C8030020D0030020D0030020B9
:101B7000D8030020D8030020E0030020E003002069
:101B8000E8030020E8030020F0030020F003002019
:101B9000F8030020F80300200004002000040020C7
:101BA0000804002008040020100400201004002075
:101BB0001804002018040020200400202004002025
:101BC00028040020280400203004002030040020D5
:101BD0003804002038040020400400204004002085
:101BE0004804002048040020500400205004002035
:101BF00058040020580400206004002060040020E5
:101C00006804002068040020700400207004002094
:101C10007804002078040020800400208004002044
:101C200088040020880400209004002090040020F4
:101C30009804002098040020A0040020A0040020A4
:101C4000A8040020A8040020B0040020B004002054
:101C5000B8040020B8040020C0040020C004002004
:101C6000C8040020C8040020D0040020D0040020B4
:101C7000D8040020D8040020E0040020E004002064
:101C8000E8040020E8040020F0040020F004002014
:101C9000F8040020F80400200005002000050020C2
:101CA0000805002008050020100500201005002070
:101CB0001805002018050020200500202005002020
:101CC00028050020280500203005002030050020D0
:101CD0003805002038050020400500204005002080
:101CE0004805002048050020500500205005002030
:101CF00058050020580500206005002060050020E0
:101D0000680500206805002070050020700500208F
:101D1000780500207805002080050020800500203F
:101D200088050020880500209005002090050020EF
:101D30009805002098050020A0050020A00500209F
:101D4000A8050020A8050020B0050020B00500204F
:101D5000B8050020B8050020C0050020C0050020FF
:101D6000C8050020C8050020D0050020D0050020AF
:101D7000D8050020D8050020E0050020E00500205F
:101D8000E8050020E8050020F0050020F00500200F
:101D9000F8050020F80500200006002000060020BD
:101DA000080600200806002010060020100600206B
:101DB000180600201806002020060020200600201B
:0400000508000329C3
:00000001FF
